:1000000000EF10F00000000000EF00F00000000022
:100010000000000000000000F3D7FFFFFFFFFFFF1C
:10002000FFFFFFFFFFFFFFFFFFFFFFFFFFFFFFFFE0
:10003000FFFFFFFFFFFFFFFFFFFFFFFFFFFFFFFFD0
:10004000FFFFFFFFFFFFFFFFFFFFFFFFFFFFFFFFC0
:10005000FFFFFFFFFFFFFFFFFFFFFFFFFFFFFFFFB0
:10200000440E156E690E166E730E176E740E186EF2
:102010002E0E196E3A0E1A6E200E1B6E1C6A630E7F
:102020001D6E6D0E1E6E1F6A0F0EC16E030E2B6E9F
:1020300041DBEDDA010E336EC0D80C0E336EBDD825
:1020400049DB0A0E046E000E056E8BD900C028F025
:1020500001C029F000C02BF001C02CF0200E2D6E25
:10206000000E2E6E87DB010E2B6E010E2C6E150EF0
:102070002D6E000E2E6EC5DB200E2B6E000E2C6E0C
:10208000FDDB1D0E2B6E000E2C6EF8DB130E0B6E9F
:10209000440E0C6E440E0D6E0D2EFED70C2EFCD78A
:1020A0000B2EFAD70000CCD7FFD7026A016A006A6C
:1020B000086A036A000E12000B840BAE67EF10F083
:1020C000010E036E026A016A006A0A360232FF0ECE
:1020D00012000AAE029E000E1200030E0D6E0D2EAF
:1020E000FED7000000001200560E0C6EB50E0D6EED
:1020F0000D2EFED70C2EFCD7000000001200C70EDC
:102100000D6E0D2EFED70000000012000B800BAEEE
:1021100092EF10F0026A0AAEFF0E026E016E006EC0
:102120000A360232FF0E12000B6A0B86FF0E1200F7
:102130000B820BAEA2EF10F0036802680168006822
:102140000A360232FF0E12000C6A0E6A0250D8A440
:10215000BDEF10F001C002F000C001F0006A0E8671
:102160000250D8A4BDEF10F001C002F0016A0E9633
:102170000E880250D8B4CFEF10F00E50035ED8A4F2
:10218000D8A0D4EF10F0D89002BED9EF10F00036EE
:1021900001360236032EC4EF10F0D4EF10F0010E1A
:1021A0000C6E83DFDCEF10F0020E0C6E85DFDCEFCF
:1021B00010F0040E0C6E8DDF120033BE02D08A9C2C
:1021C00001D08A8C33BC02D08A9A01D08A8A33BA71
:1021D00002D08A9801D08A8833B802D08A9601D07A
:1021E0008A862AB002D08A8001D08A908A8475DFDC
:1021F0008A9433B602D08A9C01D08A8C33B402D040
:102200008A9A01D08A8A33B202D08A9801D08A8809
:1022100033B002D08A9601D08A862AB002D08A8052
:1022200001D08A908A8459DF8A942AA002D05CDF88
:1022300001D065DF12002A9032C033F0BEDF2A8061
:102240001200086A096A000E07620364A6EF11F023
:10225000025006180A6E075003267E0ED8A037EFEC
:1022600011F0035ED8B0AAEF11F03BEF11F0035E5E
:10227000D8A0AEEF11F0028E068E02C00EF001C0A3
:102280000BF000C00DF000500402F4CF0CF0015030
:102290000502F4CF00F0F3CF08F00402F3500C264F
:1022A000F4500822000E00220D500502F3500C26B7
:1022B000F4500822000E002202500402F3500826B7
:1022C000F450002202500502016A000E0122F35070
:1022D0000026F45001220D500602F3500826F45057
:1022E0000022026A000E012202220B500602F35065
:1022F0000026F4500122000E02220E500602F35076
:102300000126F450022202BE8EEF11F0083600368C
:10231000013602360306D8B4AEEF11F0A1EF11F08A
:10232000D880800E08640030000E002201220222B4
:10233000D8A0A1EF11F0023201320032034AAAEF15
:1023400011F00AAE029E000EB0EF11F0010EADDEEC
:10235000B0EF11F0020EECDEB0EF11F0040EACDEC7
:102360001200086A096A100E0C6E0134083609362C
:102370000450085E0550D8A0053C095ED8B007D0CF
:10238000045008260550D8B0053C0926D8900036E0
:1023900001360C2EEAD712000050086E0150006E74
:1023A000016A026A036A0B6A0C6A960E036E0A6A75
:1023B00000C001F008C000F0086A026AC5DE120021
:1023C0000450000A12E10550000A0FE10650000A0D
:1023D0000CE10750000A09E1FF0E006EFF0E016ECE
:1023E0007F0E026EFF0E036EA4D0086A096A0750C2
:1023F000D8B48BEF12F00350D8B48FEF12F0025024
:1024000006180A6E028E068E0E6A02C008F001C01F
:102410000CF000C00DF004500D5E0550D8A0053C36
:102420000C5E0650D8A0063C085E086A0C6A0D6A6D
:10243000D8A022EF12F0D8900232013200320832D6
:10244000010E0E6E0750035ED8A02FEF12F07E0E25
:102450000E240326D8B093EF12F035EF12F07E0E63
:102460000E240326D8A097EF12F0180E0B6E0D362F
:102470000C3608360036013602360E360450005E41
:102480000550D8A0053C015E0650D8A0063C025E6F
:1024900006340E120EA050EF12F00D805BEF12F01A
:1024A000045000260550D8B0053C01260650D8B08F
:1024B000062802260D900B2E37EF12F081EF12F056
:1024C000D8900036013602360E360450005E0550B4
:1024D000D8A0053C015E0650D8A0063C025E06343A
:1024E0000E10010B0D26D8B00C2AD8B4082AD8A497
:1024F00081EF12F008320C320D32032AD8B493EF78
:1025000012F00AAE089E0850026E0C50016E0D507B
:10251000006E99EF12F0010E07DE99EF12F0020E35
:10252000C4DD99EF12F0040E03DE99EF12F0080EED
:10253000C3DD12000B6A0C6A0A6A0350D8B4E4EFD8
:1025400012F0028E8E0E035E03BEACEF12F0D8B412
:10255000ACEF12F0E8EF12F0036C080E035CD8A0A9
:10256000C3EF12F0036E013602C001F0026A080EDA
:10257000035CD8A0C3EF12F00136016A0350D8A45F
:10258000D890CDEF12F00350D8B4CDEF12F0D89020
:1025900002320132032EC7EF12F00BBC01A0DAEFBA
:1025A00012F0D8A0DAEF12F0012AD8B4022A02BE43
:1025B000F7EF12F00AAEFCEF12F0021E011E012A24
:1025C000D8B4022AFCEF12F0026A016AFCEF12F0A2
:1025D0000B800BAE00EF13F0026A0AAE00EF13F0AF
:1025E000FF0E026E016E0A36023200EF13F0010E8A
:1025F0000C6E8CDD02EF13F0000E0C6E02EF13F088
:10260000FF0E0C6E0150006E0250016E120093948A
:10261000939093969398939A939C8A948A908A9C89
:102620008A9A8A988A9660DD5FDD5EDD8A888A866E
:102630008A8453DD8A9458DD8A844FDD8A9454DD80
:102640008A844BDD8A9450DD8A968A8446DD8A949A
:102650004BDD8A8442DD8A948A988A8C8A843DDDA7
:102660008A9442DD8A9C8A868A8437DD8A948A9697
:102670008A8433DD8A9438DD8A842FDD8A948A86C1
:102680008A842BDD8A9430DD8A968A8426DD8A94BA
:102690008A8C8A8A8A888A868A841FDD8A9424DDC5
:1026A0002A8012000900F5CFE6FF0006FBE10106D3
:1026B000F9E1120094929480CE6ACF6ACD6A2BB071
:1026C00002D0CD9801D0CD882BB202D0CD9A01D0C6
:1026D000CD8A12008292070E0D6E0D2EFED70000DD
:1026E00000008282270E0D6E0D2EFED70000000026
:1026F0008292FF0E2B6EFF0E2C6E82B00CD02BC080
:1027000000F02CC001F0010E2B5E000E2C5A005080
:10271000011001E0F2D7CF6ACE6ACD80FF0E2B6E9A
:10272000FF0E2C6E82A00CD02BC000F02CC001F04C
:10273000010E2B5E000E2C5A0050011001E0F2D762
:10274000CD90CECF00F0CFCF01F026DE330E046E59
:10275000330E056E330E066E7C0E076E72DD000EB4
:10276000046E000E056E400E066E7F0E076E28DEAC
:10277000E1DE12002F6A050E2F5C0AE22F502D2495
:10278000E16E000E2E20E26E300EE66E2F2AF3D799
:102790002F502D24E16E000E2E20E26EE66A2F06E9
:1027A000000E2C1802E1000E2B182AE02F502D24C9
:1027B000306E000E2E20316E0A0E046E000E056E75
:1027C0002BC000F02CC001F0CCDD08C000F009C027
:1027D00001F0300E002630C0E1FF31C0E2FF00C042
:1027E000E6FF2F060A0E046E000E056E2BC000F0E9
:1027F0002CC001F0B6DD00C02BF001C02CF0D0D70A
:1028000012000FD0800E2B6E19D0C00E2B6E16D07A
:10281000940E2B6E13D0D40E2B6E10D0800E2B6E18
:102820000DD02B50010AEEE02B50020AEEE02B50A7
:10283000030AEEE02B50040AEEE0F0D72C04006E01
:102840002B50002600C02BF000C033F0B6DC2A90DD
:102850002F6A2F502D24E96E000E2E20EA6EEE52C4
:102860000BE02F502D24E96E000E2E20EA6EEECFE5
:1028700032F0E1DC2F2AEDD72A8012002D6A2D508C
:102880002B24E96E000E2C20EA6EEE520BE02D5048
:102890002B24E96E000E2C20EA6EEECF32F0CBDC5A
:1028A0002D2AEDD71200FFFFFFFFFFFFFFFFFFFF05
:020000040030CA
:0E000000000C1F1EFF8381FF0FC00FE00F409A
:00000001FF
