:1000000000EF10F00000000000EF00F00000000022
:100010000000000000000000F3D7FFFFFFFFFFFF1C
:10002000FFFFFFFFFFFFFFFFFFFFFFFFFFFFFFFFE0
:10003000FFFFFFFFFFFFFFFFFFFFFFFFFFFFFFFFD0
:10004000FFFFFFFFFFFFFFFFFFFFFFFFFFFFFFFFC0
:10005000FFFFFFFFFFFFFFFFFFFFFFFFFFFFFFFFB0
:1020000050EC12F0946ABA80BA82950EBB6E29D950
:102010002CD992800F015B811D6AE7D8030E1D6EDB
:1020200009D929DA0A0E046ED70E056E430E066E24
:102030007F0E076E90D91ED900C017F001C018F0AE
:1020400000C01DF09CD8EAD7FFD70AAE029E000E52
:1020500012000B840BAE34EF10F0010E036E026A17
:10206000016A006A0A360232FF0E1200026A016A31
:10207000006A086A036A000E12000B6A0A6A096A9B
:1020800000500402F4CF09F0F3CF08F0015005022C
:10209000F4CF0BF0F3CF0AF000500502F3500926FD
:1020A000F4500A22E86A0B2201500402F350092678
:1020B000F4500A22E86A0B2208C000F009C001F0BF
:1020C0000AC002F00BC003F012000C6A0E6A025044
:1020D000D8A47EEF10F001C002F000C001F0006A49
:1020E0000E860250D8A47EEF10F001C002F0016A03
:1020F0000E960E880250D8B490EF10F00E50035E8A
:10210000D8A4D8A095EF10F0D89002BE9AEF10F0A6
:10211000003601360236032E85EF10F095EF10F0F1
:10212000010E0C6EA3DF9DEF10F0020E0C6E91DF1E
:102130009DEF10F0040E0C6E88DF1200570E0D6E2E
:102140000D2EFED70000000012000B820BAEAFEF89
:1021500010F003680268016800680A360232FF0E58
:1021600012000B800BAEBDEF10F0026A0AAEFF0E3C
:10217000026E016E006E0A360232FF0E1200BB5074
:10218000010F006E016A000E01221DC004F0000E56
:10219000056E73DF060E026E00C004F001C005F08C
:1021A000025005E005320432059EFF0FFAD7040EF7
:1021B000016E04C000F0015004E000360090FF0FF3
:1021C000FBD7300E0014036E04C000F005C001F010
:1021D00001320032019E01320032019E00C0BEFF7A
:1021E0000F0EBD160350BD121200340E196E220ED2
:1021F0001A6E1D0E1B6E000E1C6EC26A15501D1449
:10220000006E09E015501D147D6E7D8E7DBC02D0E0
:102210000000FCD701D07D6A161C006E0050C1166C
:1022200016501D14006E0050C112070EC012C08E51
:10223000C2801200830EC2161DC000F0003600904E
:10224000003600900050C21279DFC282C2A201D0D3
:10225000FDD7C4CF01F0006AC3500012000E011276
:102260001200BE6ABD98BD9A12009494BA840C0EF6
:10227000BD1212000B6A0350D8B480EF11F0025067
:102280000A6E028E8E0E035E03AE84EF11F0036CB5
:10229000080E035CD8A05FEF11F0036E013602C098
:1022A00001F0026A080E035CD8A05FEF11F0036E24
:1022B0000136016A0350D8A4D89069EF11F0035099
:1022C000D8B469EF11F0D89002320132032E63EFD7
:1022D00011F00BBC01A076EF11F0D8A076EF11F051
:1022E000012AD8B4022A02BE93EF11F00AAE98EF89
:1022F00011F0021E011E012AD8B4022A98EF11F033
:10230000026A016A98EF11F00B800BAE9CEF11F09E
:10231000026A0AAE9CEF11F0FF0E026E016E0A36E1
:1023200002329CEF11F0010E0C6E1BDF9EEF11F0DC
:10233000000E0C6E9EEF11F0FF0E0C6E0150006E41
:102340000250016E12000900F5CFE6FF0006FBE126
:102350000106F9E11200086A096A000E07620364C7
:1023600030EF12F0025006180A6E075003267E0E58
:10237000D8A0C1EF11F0035ED8B034EF12F0C5EF72
:1023800011F0035ED8A038EF12F0028E068E02C064
:102390000EF001C00BF000C00DF000500402F4CFAD
:1023A0000CF001500502F4CF00F0F3CF08F0040266
:1023B000F3500C26F4500822000E00220D500502A6
:1023C000F3500C26F4500822000E002202500402A2
:1023D000F3500826F450002202500502016A000E54
:1023E0000122F3500026F45001220D500602F35052
:1023F0000826F4500022026A000E012202220B502D
:102400000602F3500026F4500122000E02220E5064
:102410000602F3500126F450022202BE18EF12F019
:1024200008360036013602360306D8B438EF12F00B
:102430002BEF12F0D880800E08640030000E0022CE
:1024400001220222D8A02BEF12F002320132003218
:10245000034A34EF12F00AAE029E000E3AEF12F079
:10246000010E04DE3AEF12F0020E6FDE3AEF12F0C8
:10247000040EEFDD12000050086E0150006E016A7C
:10248000026A036A0B6A0C6A960E036E0A6A00C03F
:1024900001F008C000F0086A026A17DE1200300F6F
:1024A00010EE15F0020E006E010E016E9E0EF66E1D
:1024B000240EF76E000EF86EA3EC11F01200FFFF71
:020000040030CA
:0E00000000235F3CFFD381FF0FC00FE00F40D5
:00000001FF
