:1000000000EF10F00000000000EF00F00000000022
:100010000000000000000000F3D7FFFFFFFFFFFF1C
:10002000FFFFFFFFFFFFFFFFFFFFFFFFFFFFFFFFE0
:10003000FFFFFFFFFFFFFFFFFFFFFFFFFFFFFFFFD0
:10004000FFFFFFFFFFFFFFFFFFFFFFFFFFFFFFFFC0
:10005000FFFFFFFFFFFFFFFFFFFFFFFFFFFFFFFFB0
:10200000DAEC15F09280CADA010E446E020E456ECB
:10201000200E466E000E476E0CDB010E566EB3D8D6
:102020000C0E566EB0D8070E0B6E170E0C6E6A0EA5
:102030000D6E0D2EFED70C2EFCD70B2EFAD70000FE
:10204000446A91EC15F0B0EC15F000C03FF001C00F
:1020500040F002C041F003C042F0230E046EDB0EDC
:10206000056E790E066E7D0E076EFAD900C03FF040
:1020700001C040F002C041F003C042F000C044F093
:1020800001C045F002C046F003C047F0300E486E74
:10209000000E496E0BDB070E0B6E170E0C6E6A0EF0
:1020A0000D6E0D2EFED70C2EFCD70B2EFAD700008E
:1020B000010E446E020E456E200E466E000E476EF7
:1020C000B8DA020E446E020E456E2A0E466E000EFF
:1020D000476EAFDA020E446E070E456E30C046F012
:1020E00062EC15F0020E446E080E456E31C046F0EB
:1020F00062EC15F0020E446E090E456E32C046F0D9
:1021000062EC15F0020E446E0A0E456E33C046F0C6
:1021100062EC15F0070E0B6E170E0C6E6A0E0D6E4C
:102120000D2EFED70C2EFCD70B2EFAD700007BD736
:10213000FFD7560E0C6EB50E0D6E0D2EFED70C2E63
:10214000FCD7000000001200C70E0D6E0D2EFED74A
:10215000000000001200030E0D6E0D2EFED70000D1
:10216000000012000B840BAEBDEF10F0010E036EE9
:10217000026A016A006A0A360232FF0E12000AAED3
:10218000029E000E120056BE02D08A9C01D08A8C9C
:1021900056BC02D08A9A01D08A8A56BA02D08A984E
:1021A00001D08A8856B802D08A9601D08A8643B078
:1021B00002D08A8001D08A908A84CDDF8A9456B674
:1021C00002D08A9C01D08A8C56B402D08A9A01D05F
:1021D0008A8A56B202D08A9801D08A8856B002D034
:1021E0008A9601D08A8643B002D08A8001D08A9034
:1021F0008A84B1DF8A9443A002D09BDF01D0A4DFA0
:102200001200026A016A006A086A036A000E12007C
:102210000B820BAE12EF11F00368026801680068D0
:102220000A360232FF0E12000C6A0E6A0250D8A45F
:102230002DEF11F001C002F000C001F0006A0E861F
:102240000250D8A42DEF11F001C002F0016A0E96E1
:102250000E880250D8B43FEF11F00E50035ED8A4A0
:10226000D8A044EF11F0D89002BE49EF11F000362B
:1022700001360236032E34EF11F044EF11F0010E57
:102280000C6EBFDF4CEF11F0020E0C6E6BDF4CEFEB
:1022900011F0040E0C6E73DF120052C004F053C034
:1022A00005F004C002F005C003F0044A052A54C03A
:1022B00000F055C001F0544A552A00C0E9FF01C0A2
:1022C000EAFF02C0E1FF03C0E2FFEECFE6FF02C07B
:1022D000E9FF03C0EAFFEE5201E0E3D752C000F08D
:1022E00053C001F012000A6A0350D8A40A800750B4
:1022F000D8A40A820A50D8B4D6EF11F0030AD8B491
:102300008FEF11F00AB08AEF11F006AED4EF11F0A2
:10231000D2EF11F002AED2EF11F0D4EF11F0025073
:10232000800B0A6E029E0650800B069E0A18D8B4D7
:10233000A0EF11F00A50D8B4D2EF11F0D4EF11F0A1
:102340000750035CD8B4AAEF11F0D8A0C6EF11F083
:10235000CCEF11F00650025CD8B4B4EF11F0D8A065
:10236000C6EF11F0CCEF11F00550015CD8B4BEEF10
:1023700011F0D8A0C6EF11F0CCEF11F00450005CC2
:10238000D8B4D6EF11F0D8B0CCEF11F00A52D8B4CF
:10239000D4EF11F0D2EF11F00A52D8B4D2EF11F00D
:1023A000D4EF11F0D8801200D8901200D880D884D1
:1023B00012001200570E0D6E0D2EFED70000000009
:1023C00012000D6A086A0050D8B4000C04180A6E96
:1023D0000ABE0D1E0B6A04AE02D0041E042A00AE13
:1023E00002D0001E002A005004100A6E0ABE1FD040
:1023F0000450085E003600340836045008260036C3
:10240000060E0C6E00340836045000B0085E00A0C2
:10241000082600360C2EF6D700A008260BB015D0E3
:102420000DAE000C001E002A081E082A000C04AE87
:1024300009D000BE04D00050086E006AF1D7006ACF
:10244000002A000C001E0B2AD3D7082A0450085C6F
:10245000D8A4E6D7086A002A00AEE2D7FF0C120023
:10246000086A096A000E07620364B5EF12F00250B1
:1024700006180A6E075003267E0ED8A046EF12F00B
:10248000035ED8B0B9EF12F04AEF12F0035ED8A0A5
:10249000BDEF12F0028E068E02C00EF001C00BF0EE
:1024A00000C00DF000500402F4CF0CF00150050202
:1024B000F4CF00F0F3CF08F00402F3500C26F450F0
:1024C0000822000E00220D500502F3500C26F45095
:1024D0000822000E002202500402F3500826F45095
:1024E000002202500502016A000E0122F35000266C
:1024F000F45001220D500602F3500826F450002239
:10250000026A000E012202220B500602F35000263E
:10251000F4500122000E02220E500602F350012652
:10252000F450022202BE9DEF12F00836003601364A
:1025300002360306D8B4BDEF12F0B0EF12F0D88027
:10254000800E08640030000E002201220222D8A072
:10255000B0EF12F0023201320032034AB9EF12F04A
:102560000AAE029E000EBFEF12F0010E4ADEBFEF70
:1025700012F0020E4DDEBFEF12F0040EF3DD12007A
:10258000439052C056F0FFDD438012000900F5CFA2
:10259000E6FF0006FBE10106F9E112009394939037
:1025A00093969398939A939C8A948A908A9C8A9AF9
:1025B0008A988A96BEDDBDDDBCDD8A888A868A84DB
:1025C000CADD8A94B6DD8A84C6DD8A94B2DD8A8447
:1025D000C2DD8A94AEDD8A968A84BDDD8A94A9DD47
:1025E0008A84B9DD8A948A988A8C8A84B4DD8A9434
:1025F000A0DD8A9C8A868A84AEDD8A948A968A8443
:10260000AADD8A9496DD8A84A6DD8A948A868A84E5
:10261000A2DD8A948EDD8A968A849DDD8A948A8CD6
:102620008A8A8A888A868A8496DD8A9482DD4380B3
:1026300012000FD0800E446E19D0C00E446E16D01A
:10264000940E446E13D0D40E446E10D0800E446E9F
:102650000DD04450010AEEE04450020AEEE044502E
:10266000030AEEE04450040AEEE0F0D74504006EA1
:102670004450002600C044F000C056F084DD439072
:10268000486A48504624E96E000E4720EA6EEE5232
:102690000BE048504624E96E000E4720EA6EEECF6C
:1026A00052F06EDF482AEDD743801200506A516A1B
:1026B00044C04CF045C04DF046C04EF047C04FF00E
:1026C0004F50FF0A08E14E50FF0A05E14D50FF0A46
:1026D00002E14C50FF0A0CE148C052F049C053F0EF
:1026E000150E546E000E556ED8DD030E006EE9D146
:1026F000010E4A6E4EAE0ED0800E4E18006E00C017
:102700004EF04A2A48C0E1FF49C0E2FF2D0EE66EB6
:10271000484A492A000E006E4F1808E100504E1832
:1027200005E100504D1802E14C50000A0BE148C091
:1027300052F049C053F01E0E546E000E556EADDDC2
:10274000006ABFD14F50FF0A08E14E50000A05E170
:102750004D50000A02E14C50000A0CE148C052F012
:1027600049C053F01A0E546E000E556E96DD4AC0E5
:1027700000F0A7D1000E046E000E056E000E066E6E
:102780007F0E076E4CC000F04DC001F04EC002F04D
:102790004FC003F0A8DD010ED8B0000E006E00524D
:1027A0001BE04CC000F04DC001F04EC002F04FC025
:1027B00003F0000E046E000E056E200E066E820EF3
:1027C000076E4EDE00C04CF001C04DF002C04EF06E
:1027D00003C04FF05106CED7000E046E000E056EFA
:1027E000200E066E820E076E4CC000F04DC001F048
:1027F0004EC002F04FC003F076DD000ED8B0010EDF
:10280000006E00521BE04CC000F04DC001F04EC005
:1028100002F04FC003F0CD0E046ECC0E056E4C0ED0
:10282000066E7B0E076E1CDE00C04CF001C04DF042
:1028300002C04EF003C04FF0512ACED7FF0E4C1409
:10284000086EFF0E4D14096E7F0E4E140A6E000EB8
:102850004F140B6E08C004F009C005F00AC006F062
:102860000BC007F004360490053606360736000E16
:102870004C14006E000E4D14016E000E4E14026ECC
:10288000FF0E4F14036E00C04CF001C04DF002C0AB
:102890004EF003C04FF004504C10006E05504D1028
:1028A000016E06504E10026E07504F10036E00C0AE
:1028B0004CF001C04DF002C04EF003C04FF07F0E4F
:1028C0004F5C006E00C04BF0010E4F6E00C004F074
:1028D0004CC000F04DC001F04EC002F04FC003F0FC
:1028E000045007E000360090013602360336FF0F31
:1028F000F8D700C04CF001C04DF002C04EF003C04C
:102900004FF048C0E1FF49C0E2FF4F50300FE66E84
:10291000484A492A800E5118006E800E010A005C58
:1029200008E3800E060A006E800E5118005C01E379
:102930000AD048C0E1FF49C0E2FF2E0EE66E484AC9
:10294000492A010E506E060E4B6E4B50000A54E0A1
:102950004F6A4CC000F04DC001F04EC002F04FC0B5
:1029600003F0003600900136023603360036009040
:102970000136023603364C5000264D5001224E508F
:1029800002224F50032200C04CF001C04DF002C0A3
:102990004EF003C04FF04CC000F04DC001F04EC0EF
:1029A00002F04FC003F000360090013602360336C5
:1029B00000C04CF001C04DF002C04EF003C04FF01B
:1029C00048C0E1FF49C0E2FF4F50300FE66E484A71
:1029D000492A5050000A0EE151065150000A0AE1FE
:1029E00048C0E1FF49C0E2FF2E0EE66E484A492A80
:1029F000010E506E4B06A9D7FF0E4824E96EFF0E5C
:102A00004920EA6EEE50300A05E1010E485E000EE4
:102A1000495AF2D7FF0E4824E96EFF0E4920EA6EAC
:102A2000EE502E0A04E1010E485E000E495A515044
:102A3000000A41E048C0E1FF49C0E2FF650EE66ED2
:102A4000484A492A800E5118006E800E000A005C28
:102A50000BE248C0E1FF49C0E2FF2D0EE66E484A96
:102A6000492A51500008516E51C04BF0800E090A9E
:102A7000006E800E5118005C0EE20A0E046E4BC010
:102A800000F09FDC48C0E1FF49C0E2FF0050300F7A
:102A9000E66E484A492A0A0E046E4BC000F091DCEB
:102AA00008C000F048C0E1FF49C0E2FF0050300F0D
:102AB000E66E484A492A48C0E1FF49C0E2FFE66A9B
:102AC000006A12000FD0800E446E19D0C00E446E02
:102AD00016D0940E446E13D0D40E446E10D0800ED7
:102AE000446E0DD04450010AEEE04450020AEEE07C
:102AF0004450030AEEE04450040AEEE0F0D74504E7
:102B0000006E4450002600C044F0438000C056F0E0
:102B1000C3EC10F0439046C056F0C3EC10F0438075
:102B20001200C26A191C006E0050C116070EC012B6
:102B3000C08E44C000F00036009000360090005077
:102B4000C212C28037DCC282C2A201D0FDD7C4CF7C
:102B500001F0006AC3500012000E0112C290120070
:102B60000050086E0150006E016A026A036A0B6A27
:102B70000C6A960E036E0A6A00C001F008C000F0ED
:102B8000086A026A14EC11F012004E614E003049DE
:102B90004E460030004D6963726F7369646500547E
:102BA000656D703A000000000000000000000000A9
:102BB0000000000010EE15F02A0E006E010E016EEE
:102BC0008A0EF66E2B0EF76E000EF86EC6EC12F043
:102BD0001200FFFFFFFFFFFFFFFFFFFFFFFFFFFFF1
:020000040030CA
:0E000000000C1F1EFF8381FF0FC00FE00F409A
:00000001FF
