:1000000000EF10F00000000000EF00F00000000022
:100010000000000000000000F3D7FFFFFFFFFFFF1C
:10002000FFFFFFFFFFFFFFFFFFFFFFFFFFFFFFFFE0
:10003000FFFFFFFFFFFFFFFFFFFFFFFFFFFFFFFFD0
:10004000FFFFFFFFFFFFFFFFFFFFFFFFFFFFFFFFC0
:10005000FFFFFFFFFFFFFFFFFFFFFFFFFFFFFFFFB0
:102000003CEC14F00F015C6B5B6B989E999EEEDAD2
:10201000010E3E6EBCD90C0E3E6EB9D9010E366E65
:10202000010E376E150E386E000E396E9ADA020EFA
:10203000366E0D0E376EDF0E386E86DB020E366E94
:102040000E0E376E430E386E7FDB800E366E0F0E2F
:10205000376E386A22DA800E366E0F0E376E386AA7
:10206000CC0E396E9EDB800E366E0F0E376E386AE0
:10207000440E396E96DB800E366E0F0E376E386A60
:1020800036DA0050000A01E1F6D7800E366E0F0EE8
:10209000376E386A02DA800E366E0F0E376E386A87
:1020A000CC0E396E7EDB800E366E0F0E376E386AC0
:1020B000BE0E396E76DB800E366E0F0E376E386AC6
:1020C00016DA00C031F0000E326E800E366E0F0E42
:1020D000376E386A0CDA00C005F0046A045031101B
:1020E000026E32500510036E02C031F003C032F0B0
:1020F00003AE0BD02FC0E1FF30C0E2FF2D0EE66E25
:10210000311E321E314A322A25D0040E006E31C0F3
:1021100001F032C002F0005007E002320132029EAC
:1021200002BC028EFF0FF8D7800E0218006E800EE0
:10213000005C02E1640E015C07E32FC0E1FF30C0E8
:10214000E2FF310EE66E06D02FC0E1FF30C0E2FFA5
:10215000200EE66E010E2F24346E000E3020356EF8
:10216000040E026E31C000F032C001F0025007E0F0
:1021700001320032019E01BC018EFF0FF8D70A0E1A
:10218000046E000E056E7DDA0A0E046E000E056EFA
:1021900078DA08C000F009C001F0300E002634C023
:1021A000E1FF35C0E2FF00C0E6FF020E2F24346ECF
:1021B000000E3020356E040E026E31C000F032C0C9
:1021C00001F0025007E001320032019E01BC018E95
:1021D000FF0FF8D70A0E046E000E056E52DA08C023
:1021E00000F009C001F0300E002634C0E1FF35C018
:1021F000E2FF00C0E6FF040E2F24346E000E3020F4
:10220000356E0F0E3114006E32C001F0000E011653
:10221000710E046E020E056EF9DAE80E046E030EFE
:10222000056E2FDA300E002634C0E1FF35C0E2FF24
:1022300000C0E6FF050E2F24346E000E3020356EF0
:102240000F0E3114006E32C001F0000E0116710E37
:10225000046E020E056EDADA640E046E000E056E70
:1022600010DA0A0E046E000E056E0BDA08C000F0DC
:1022700009C001F0300E002634C0E1FF35C0E2FF96
:1022800000C0E6FF060E2F24346E000E3020356E9F
:102290000F0E3114006E32C001F0000E0116710EE7
:1022A000046E020E056EB2DA0A0E046E000E056EA2
:1022B000E8D90A0E046E000E056EE3D908C000F0DE
:1022C00009C001F0300E002634C0E1FF35C0E2FF46
:1022D00000C0E6FF070E2F24346E000E3020356E4E
:1022E0000F0E3114006E32C001F0000E0116710E97
:1022F000046E020E056E8ADA0A0E046E000E056E7A
:10230000C0D908C000F009C001F0300E002634C06A
:10231000E1FF35C0E2FF00C0E6FF080E2F24E16EAA
:10232000000E3020E26EDF0EE66E020E366E040EF8
:10233000376E2FC038F030C039F013D93D0E0B6E18
:10234000E10E0C6E3F0E0D6E0D2EFED70C2EFCD73F
:102350000B2EFAD70000000078D6FFD7C70E0D6EFF
:102360000D2EFED7000000001200560E0C6EB50EAA
:102370000D6E0D2EFED70C2EFCD7000000001200B3
:10238000030E0D6E0D2EFED70000000012003EBEA3
:1023900002D08A9C01D08A8C3EBC02D08A9A01D09D
:1023A0008A8A3EBA02D08A9801D08A883EB802D082
:1023B0008A9601D08A8633B002D08A8001D08A9072
:1023C0008A84DEDF8A943EB602D08A9C01D08A8C51
:1023D0003EB402D08A9A01D08A8A3EB202D08A984C
:1023E00001D08A883EB002D08A9601D08A8633B066
:1023F00002D08A8001D08A908A84C2DF8A9433A076
:1024000002D0B3DF01D0AADF12000134083609364A
:102410000450085E0550D8A0053C095E0036013620
:102420000F0E0C6E013408360936045000A006D099
:10243000085E0550D8A0053C095E05D00826055069
:10244000D8B0053C0926003601360C2EEBD700B07B
:1024500006D0045008260550D8B0053C09260000D7
:10246000120033903DC03EF092DF33801200080E20
:102470000C6EC10E0D6E0D2EFED70C2EFCD700007B
:1024800000001200020E0C6E350E0D6E0D2EFED7E2
:102490000C2EFCD700000000120038C001F0010E25
:1024A000006E015004E000360090FF0FFBD700C023
:1024B0003AF0001E36C0E9FF37C0EAFF0050EF16C1
:1024C000120EE9260050EF16D2DF3A50EF12120E2C
:1024D000E95ED8DF3A50EF14396E3950000A000E29
:1024E000D8A4010E396EC3DF39C000F0120038C025
:1024F00001F0010E006E015004E000360090FF0F65
:10250000FBD700C03CF0001C3B6E3A6A36C0E9FFC6
:1025100037C0EAFF396A3950070820E33B50EF160D
:10252000120EE9263B50EF162BDF3C50EF1228DF4E
:10253000120EE95E3C50EF14006E0CE039C001F061
:10254000010E006E015004E000360090FF0FFBD733
:1025500000503A1203DF02DF392ADDD73AC000F01B
:1025600012000FD0800E366E19D0C00E366E16D007
:10257000940E366E13D0D40E366E10D0800E366E9A
:102580000DD03650010AEEE03650020AEEE0365029
:10259000030AEEE03650040AEEE0F0D73704006E8E
:1025A0003650002600C036F000C03EF0F0DE33901A
:1025B0003A6A3A503824E96E000E3920EA6EEE523B
:1025C0000BE03A503824E96E000E3920EA6EEECF67
:1025D0003DF047DF3A2AEDD7338012000900F5CFEE
:1025E000E6FF0006FBE10106F9E1120093949390E7
:1025F00093969398939A939C8A948A908A9C8A9AA9
:102600008A988A96B2DEB1DEB0DE8A888A868A84AB
:10261000B7DE8A94AADE8A84B3DE8A94A6DE8A8430
:10262000AFDE8A94A2DE8A968A84AADE8A949DDE30
:102630008A84A6DE8A948A988A8C8A84A1DE8A9407
:1026400094DE8A9C8A868A849BDE8A948A968A840F
:1026500097DE8A948ADE8A8493DE8A948A868A84C4
:102660008FDE8A9482DE8A968A848ADE8A948A8CB5
:102670008A8A8A888A868A8483DE8A9476DE338090
:1026800012000450000A08E10550000A05E1FF0E9F
:10269000006E7F0E016E57D00D6A096A086A0150FC
:1026A0000010D8B4000C015005180A6E0ABE0D1EA9
:1026B0000B6A05AE05D0041E051E042AD8B4052AEF
:1026C00001AE05D0001E011E002AD8B4012A015017
:1026D00005100A6E0ABE10D098DE0BB020D00DAEE9
:1026E000000C001E011E002AD8B4012A081E091E73
:1026F000082AD8B4092A000C05AE0DD001BE07D0B7
:102700000150096E0050086E016A006AE8D7016A3C
:10271000006A002A000C011E001E0B2ADDD7082AC1
:10272000D8B4092A0450085CD8A4D9D70550095C4C
:10273000D8A4D5D7096A086A002AD8B4012A01AEFC
:10274000CED70000FF0C12000FD0800E366E19D0CD
:10275000C00E366E16D0940E366E13D0D40E366E72
:1027600010D0800E366E0DD03650010AEEE0365095
:10277000020AEEE03650030AEEE03650040AEEE0BC
:10278000F0D73704006E3650002600C036F0338094
:1027900000C03EF0FCDD339038C03EF0F8DD338001
:1027A000120038C001F0010E006E015004E0003646
:1027B0000090FF0FFBD700C03CF0001E00C03BF0B4
:1027C00036C0E9FF37C0EAFF0050EF16120EE926C7
:1027D0003A6A3A50070815E33AC000F039C001F0F0
:1027E000005004E00132019EFF0FFBD73B50EF1673
:1027F00001A002D03C50EF1245DE3C50EF123A2AC5
:10280000E8D7120EE95EAADDA9DD12000B6A0A6A9A
:10281000096A00500402F4CF09F0F3CF08F0015028
:102820000502F4CF0BF0F3CF0AF000500502F3508D
:102830000926F4500A22E86A0B2201500402F350E0
:102840000926F4500A22E86A0B2208C000F009C0E9
:1028500001F00AC002F00BC003F012002054656DB5
:1028600070657261747572653A20202000303030D6
:102870002E3030303000260010EE15F01C0E006EA9
:10288000010E016E5C0EF66E280EF76E000EF86EED
:10289000EEEC12F01200FFFFFFFFFFFFFFFFFFFF54
:020000040030CA
:0E00000000235F3CFFD381FF0FC00FE00F40D5
:00000001FF
